{
  "_format": "hh-sol-artifact-1",
  "contractName": "NFTMarketplace",
  "sourceName": "contracts/NFTMarketplace.sol",
  "abi": [
    {
      "inputs": [],
      "stateMutability": "nonpayable",
      "type": "constructor"
    },
    {
      "inputs": [
        {
          "internalType": "address",
          "name": "sender",
          "type": "address"
        },
        {
          "internalType": "uint256",
          "name": "tokenId",
          "type": "uint256"
        },
        {
          "internalType": "address",
          "name": "owner",
          "type": "address"
        }
      ],
      "name": "ERC721IncorrectOwner",
      "type": "error"
    },
    {
      "inputs": [
        {
          "internalType": "address",
          "name": "operator",
          "type": "address"
        },
        {
          "internalType": "uint256",
          "name": "tokenId",
          "type": "uint256"
        }
      ],
      "name": "ERC721InsufficientApproval",
      "type": "error"
    },
    {
      "inputs": [
        {
          "internalType": "address",
          "name": "approver",
          "type": "address"
        }
      ],
      "name": "ERC721InvalidApprover",
      "type": "error"
    },
    {
      "inputs": [
        {
          "internalType": "address",
          "name": "operator",
          "type": "address"
        }
      ],
      "name": "ERC721InvalidOperator",
      "type": "error"
    },
    {
      "inputs": [
        {
          "internalType": "address",
          "name": "owner",
          "type": "address"
        }
      ],
      "name": "ERC721InvalidOwner",
      "type": "error"
    },
    {
      "inputs": [
        {
          "internalType": "address",
          "name": "receiver",
          "type": "address"
        }
      ],
      "name": "ERC721InvalidReceiver",
      "type": "error"
    },
    {
      "inputs": [
        {
          "internalType": "address",
          "name": "sender",
          "type": "address"
        }
      ],
      "name": "ERC721InvalidSender",
      "type": "error"
    },
    {
      "inputs": [
        {
          "internalType": "uint256",
          "name": "tokenId",
          "type": "uint256"
        }
      ],
      "name": "ERC721NonexistentToken",
      "type": "error"
    },
    {
      "anonymous": false,
      "inputs": [
        {
          "indexed": true,
          "internalType": "address",
          "name": "owner",
          "type": "address"
        },
        {
          "indexed": true,
          "internalType": "address",
          "name": "approved",
          "type": "address"
        },
        {
          "indexed": true,
          "internalType": "uint256",
          "name": "tokenId",
          "type": "uint256"
        }
      ],
      "name": "Approval",
      "type": "event"
    },
    {
      "anonymous": false,
      "inputs": [
        {
          "indexed": true,
          "internalType": "address",
          "name": "owner",
          "type": "address"
        },
        {
          "indexed": true,
          "internalType": "address",
          "name": "operator",
          "type": "address"
        },
        {
          "indexed": false,
          "internalType": "bool",
          "name": "approved",
          "type": "bool"
        }
      ],
      "name": "ApprovalForAll",
      "type": "event"
    },
    {
      "anonymous": false,
      "inputs": [
        {
          "indexed": false,
          "internalType": "uint256",
          "name": "_fromTokenId",
          "type": "uint256"
        },
        {
          "indexed": false,
          "internalType": "uint256",
          "name": "_toTokenId",
          "type": "uint256"
        }
      ],
      "name": "BatchMetadataUpdate",
      "type": "event"
    },
    {
      "anonymous": false,
      "inputs": [
        {
          "indexed": false,
          "internalType": "uint256",
          "name": "_tokenId",
          "type": "uint256"
        }
      ],
      "name": "MetadataUpdate",
      "type": "event"
    },
    {
      "anonymous": false,
      "inputs": [
        {
          "indexed": true,
          "internalType": "address",
          "name": "from",
          "type": "address"
        },
        {
          "indexed": true,
          "internalType": "address",
          "name": "to",
          "type": "address"
        },
        {
          "indexed": true,
          "internalType": "uint256",
          "name": "tokenId",
          "type": "uint256"
        }
      ],
      "name": "Transfer",
      "type": "event"
    },
    {
      "inputs": [
        {
          "internalType": "address",
          "name": "to",
          "type": "address"
        },
        {
          "internalType": "uint256",
          "name": "tokenId",
          "type": "uint256"
        }
      ],
      "name": "approve",
      "outputs": [],
      "stateMutability": "nonpayable",
      "type": "function"
    },
    {
      "inputs": [
        {
          "internalType": "address",
          "name": "owner",
          "type": "address"
        }
      ],
      "name": "balanceOf",
      "outputs": [
        {
          "internalType": "uint256",
          "name": "",
          "type": "uint256"
        }
      ],
      "stateMutability": "view",
      "type": "function"
    },
    {
      "inputs": [
        {
          "internalType": "uint256",
          "name": "tokenId",
          "type": "uint256"
        }
      ],
      "name": "cancelAuction",
      "outputs": [],
      "stateMutability": "payable",
      "type": "function"
    },
    {
      "inputs": [
        {
          "internalType": "uint256",
          "name": "tokenId",
          "type": "uint256"
        }
      ],
      "name": "cancelSelling",
      "outputs": [],
      "stateMutability": "payable",
      "type": "function"
    },
    {
      "inputs": [
        {
          "internalType": "uint256",
          "name": "tokenId",
          "type": "uint256"
        },
        {
          "internalType": "uint256",
          "name": "price",
          "type": "uint256"
        }
      ],
      "name": "createMarketItem",
      "outputs": [],
      "stateMutability": "payable",
      "type": "function"
    },
    {
      "inputs": [
        {
          "internalType": "uint256",
          "name": "tokenId",
          "type": "uint256"
        }
      ],
      "name": "createMarketSale",
      "outputs": [],
      "stateMutability": "payable",
      "type": "function"
    },
    {
      "inputs": [
        {
          "internalType": "string",
          "name": "tokenURI",
          "type": "string"
        }
      ],
      "name": "createToken",
      "outputs": [
        {
          "internalType": "uint256",
          "name": "",
          "type": "uint256"
        }
      ],
      "stateMutability": "payable",
      "type": "function"
    },
    {
      "inputs": [],
      "name": "fetchAllAuctionItems",
      "outputs": [
        {
          "components": [
            {
              "internalType": "uint256",
              "name": "tokenId",
              "type": "uint256"
            },
            {
              "internalType": "address payable",
              "name": "seller",
              "type": "address"
            },
            {
              "internalType": "address payable",
              "name": "owner",
              "type": "address"
            },
            {
              "internalType": "uint256",
              "name": "price",
              "type": "uint256"
            },
            {
              "internalType": "bool",
              "name": "sold",
              "type": "bool"
            },
            {
              "internalType": "bool",
              "name": "directSold",
              "type": "bool"
            },
            {
              "internalType": "uint256",
              "name": "startTime",
              "type": "uint256"
            },
            {
              "internalType": "uint256",
              "name": "endTime",
              "type": "uint256"
            },
            {
              "internalType": "address payable",
              "name": "highestBidder",
              "type": "address"
            },
            {
              "internalType": "uint256",
              "name": "highestBid",
              "type": "uint256"
            },
            {
              "internalType": "bool",
              "name": "auctionCompleted",
              "type": "bool"
            }
          ],
          "internalType": "struct NFTMarketplace.MarketItem[]",
          "name": "",
          "type": "tuple[]"
        }
      ],
      "stateMutability": "view",
      "type": "function"
    },
    {
      "inputs": [],
      "name": "fetchItemsListed",
      "outputs": [
        {
          "components": [
            {
              "internalType": "uint256",
              "name": "tokenId",
              "type": "uint256"
            },
            {
              "internalType": "address payable",
              "name": "seller",
              "type": "address"
            },
            {
              "internalType": "address payable",
              "name": "owner",
              "type": "address"
            },
            {
              "internalType": "uint256",
              "name": "price",
              "type": "uint256"
            },
            {
              "internalType": "bool",
              "name": "sold",
              "type": "bool"
            },
            {
              "internalType": "bool",
              "name": "directSold",
              "type": "bool"
            },
            {
              "internalType": "uint256",
              "name": "startTime",
              "type": "uint256"
            },
            {
              "internalType": "uint256",
              "name": "endTime",
              "type": "uint256"
            },
            {
              "internalType": "address payable",
              "name": "highestBidder",
              "type": "address"
            },
            {
              "internalType": "uint256",
              "name": "highestBid",
              "type": "uint256"
            },
            {
              "internalType": "bool",
              "name": "auctionCompleted",
              "type": "bool"
            }
          ],
          "internalType": "struct NFTMarketplace.MarketItem[]",
          "name": "",
          "type": "tuple[]"
        }
      ],
      "stateMutability": "view",
      "type": "function"
    },
    {
      "inputs": [],
      "name": "fetchMarketItems",
      "outputs": [
        {
          "components": [
            {
              "internalType": "uint256",
              "name": "tokenId",
              "type": "uint256"
            },
            {
              "internalType": "address payable",
              "name": "seller",
              "type": "address"
            },
            {
              "internalType": "address payable",
              "name": "owner",
              "type": "address"
            },
            {
              "internalType": "uint256",
              "name": "price",
              "type": "uint256"
            },
            {
              "internalType": "bool",
              "name": "sold",
              "type": "bool"
            },
            {
              "internalType": "bool",
              "name": "directSold",
              "type": "bool"
            },
            {
              "internalType": "uint256",
              "name": "startTime",
              "type": "uint256"
            },
            {
              "internalType": "uint256",
              "name": "endTime",
              "type": "uint256"
            },
            {
              "internalType": "address payable",
              "name": "highestBidder",
              "type": "address"
            },
            {
              "internalType": "uint256",
              "name": "highestBid",
              "type": "uint256"
            },
            {
              "internalType": "bool",
              "name": "auctionCompleted",
              "type": "bool"
            }
          ],
          "internalType": "struct NFTMarketplace.MarketItem[]",
          "name": "",
          "type": "tuple[]"
        }
      ],
      "stateMutability": "view",
      "type": "function"
    },
    {
      "inputs": [],
      "name": "fetchMyAuctionItems",
      "outputs": [
        {
          "components": [
            {
              "internalType": "uint256",
              "name": "tokenId",
              "type": "uint256"
            },
            {
              "internalType": "address payable",
              "name": "seller",
              "type": "address"
            },
            {
              "internalType": "address payable",
              "name": "owner",
              "type": "address"
            },
            {
              "internalType": "uint256",
              "name": "price",
              "type": "uint256"
            },
            {
              "internalType": "bool",
              "name": "sold",
              "type": "bool"
            },
            {
              "internalType": "bool",
              "name": "directSold",
              "type": "bool"
            },
            {
              "internalType": "uint256",
              "name": "startTime",
              "type": "uint256"
            },
            {
              "internalType": "uint256",
              "name": "endTime",
              "type": "uint256"
            },
            {
              "internalType": "address payable",
              "name": "highestBidder",
              "type": "address"
            },
            {
              "internalType": "uint256",
              "name": "highestBid",
              "type": "uint256"
            },
            {
              "internalType": "bool",
              "name": "auctionCompleted",
              "type": "bool"
            }
          ],
          "internalType": "struct NFTMarketplace.MarketItem[]",
          "name": "",
          "type": "tuple[]"
        }
      ],
      "stateMutability": "view",
      "type": "function"
    },
    {
      "inputs": [],
      "name": "fetchMyNFTs",
      "outputs": [
        {
          "components": [
            {
              "internalType": "uint256",
              "name": "tokenId",
              "type": "uint256"
            },
            {
              "internalType": "address payable",
              "name": "seller",
              "type": "address"
            },
            {
              "internalType": "address payable",
              "name": "owner",
              "type": "address"
            },
            {
              "internalType": "uint256",
              "name": "price",
              "type": "uint256"
            },
            {
              "internalType": "bool",
              "name": "sold",
              "type": "bool"
            },
            {
              "internalType": "bool",
              "name": "directSold",
              "type": "bool"
            },
            {
              "internalType": "uint256",
              "name": "startTime",
              "type": "uint256"
            },
            {
              "internalType": "uint256",
              "name": "endTime",
              "type": "uint256"
            },
            {
              "internalType": "address payable",
              "name": "highestBidder",
              "type": "address"
            },
            {
              "internalType": "uint256",
              "name": "highestBid",
              "type": "uint256"
            },
            {
              "internalType": "bool",
              "name": "auctionCompleted",
              "type": "bool"
            }
          ],
          "internalType": "struct NFTMarketplace.MarketItem[]",
          "name": "",
          "type": "tuple[]"
        }
      ],
      "stateMutability": "view",
      "type": "function"
    },
    {
      "inputs": [
        {
          "internalType": "uint256",
          "name": "tokenId",
          "type": "uint256"
        }
      ],
      "name": "finishAuction",
      "outputs": [],
      "stateMutability": "payable",
      "type": "function"
    },
    {
      "inputs": [
        {
          "internalType": "uint256",
          "name": "tokenId",
          "type": "uint256"
        }
      ],
      "name": "getApproved",
      "outputs": [
        {
          "internalType": "address",
          "name": "",
          "type": "address"
        }
      ],
      "stateMutability": "view",
      "type": "function"
    },
    {
      "inputs": [],
      "name": "getListingPrice",
      "outputs": [
        {
          "internalType": "uint256",
          "name": "",
          "type": "uint256"
        }
      ],
      "stateMutability": "view",
      "type": "function"
    },
    {
      "inputs": [
        {
          "internalType": "uint256",
          "name": "tokenId",
          "type": "uint256"
        }
      ],
      "name": "getTimeEndOfAuction",
      "outputs": [
        {
          "internalType": "uint256",
          "name": "",
          "type": "uint256"
        }
      ],
      "stateMutability": "view",
      "type": "function"
    },
    {
      "inputs": [
        {
          "internalType": "address",
          "name": "owner",
          "type": "address"
        },
        {
          "internalType": "address",
          "name": "operator",
          "type": "address"
        }
      ],
      "name": "isApprovedForAll",
      "outputs": [
        {
          "internalType": "bool",
          "name": "",
          "type": "bool"
        }
      ],
      "stateMutability": "view",
      "type": "function"
    },
    {
      "inputs": [],
      "name": "name",
      "outputs": [
        {
          "internalType": "string",
          "name": "",
          "type": "string"
        }
      ],
      "stateMutability": "view",
      "type": "function"
    },
    {
      "inputs": [
        {
          "internalType": "uint256",
          "name": "tokenId",
          "type": "uint256"
        }
      ],
      "name": "ownerOf",
      "outputs": [
        {
          "internalType": "address",
          "name": "",
          "type": "address"
        }
      ],
      "stateMutability": "view",
      "type": "function"
    },
    {
      "inputs": [
        {
          "internalType": "uint256",
          "name": "tokenId",
          "type": "uint256"
        }
      ],
      "name": "placeBid",
      "outputs": [],
      "stateMutability": "payable",
      "type": "function"
    },
    {
      "inputs": [
        {
          "internalType": "address",
          "name": "from",
          "type": "address"
        },
        {
          "internalType": "address",
          "name": "to",
          "type": "address"
        },
        {
          "internalType": "uint256",
          "name": "tokenId",
          "type": "uint256"
        }
      ],
      "name": "safeTransferFrom",
      "outputs": [],
      "stateMutability": "nonpayable",
      "type": "function"
    },
    {
      "inputs": [
        {
          "internalType": "address",
          "name": "from",
          "type": "address"
        },
        {
          "internalType": "address",
          "name": "to",
          "type": "address"
        },
        {
          "internalType": "uint256",
          "name": "tokenId",
          "type": "uint256"
        },
        {
          "internalType": "bytes",
          "name": "data",
          "type": "bytes"
        }
      ],
      "name": "safeTransferFrom",
      "outputs": [],
      "stateMutability": "nonpayable",
      "type": "function"
    },
    {
      "inputs": [
        {
          "internalType": "address",
          "name": "operator",
          "type": "address"
        },
        {
          "internalType": "bool",
          "name": "approved",
          "type": "bool"
        }
      ],
      "name": "setApprovalForAll",
      "outputs": [],
      "stateMutability": "nonpayable",
      "type": "function"
    },
    {
      "inputs": [
        {
          "internalType": "uint256",
          "name": "tokenId",
          "type": "uint256"
        },
        {
          "internalType": "uint256",
          "name": "price",
          "type": "uint256"
        },
        {
          "internalType": "uint256",
          "name": "durations",
          "type": "uint256"
        }
      ],
      "name": "startAuction",
      "outputs": [],
      "stateMutability": "payable",
      "type": "function"
    },
    {
      "inputs": [
        {
          "internalType": "bytes4",
          "name": "interfaceId",
          "type": "bytes4"
        }
      ],
      "name": "supportsInterface",
      "outputs": [
        {
          "internalType": "bool",
          "name": "",
          "type": "bool"
        }
      ],
      "stateMutability": "view",
      "type": "function"
    },
    {
      "inputs": [],
      "name": "symbol",
      "outputs": [
        {
          "internalType": "string",
          "name": "",
          "type": "string"
        }
      ],
      "stateMutability": "view",
      "type": "function"
    },
    {
      "inputs": [
        {
          "internalType": "uint256",
          "name": "tokenId",
          "type": "uint256"
        }
      ],
      "name": "tokenURI",
      "outputs": [
        {
          "internalType": "string",
          "name": "",
          "type": "string"
        }
      ],
      "stateMutability": "view",
      "type": "function"
    },
    {
      "inputs": [
        {
          "internalType": "address",
          "name": "from",
          "type": "address"
        },
        {
          "internalType": "address",
          "name": "to",
          "type": "address"
        },
        {
          "internalType": "uint256",
          "name": "tokenId",
          "type": "uint256"
        }
      ],
      "name": "transferFrom",
      "outputs": [],
      "stateMutability": "nonpayable",
      "type": "function"
    },
    {
      "inputs": [
        {
          "internalType": "uint256",
          "name": "_listingPrice",
          "type": "uint256"
        }
      ],
      "name": "updateListingPrice",
      "outputs": [],
      "stateMutability": "payable",
      "type": "function"
    }
  ],
  "bytecode": "0x60806040526658d15e17628000600a553480156200001b575f80fd5b506040518060400160405280601081526020017f4d657461766572736520546f6b656e73000000000000000000000000000000008152506040518060400160405280600481526020017f4d45545400000000000000000000000000000000000000000000000000000000815250815f90816200009891906200036c565b508060019081620000aa91906200036c565b50505033600b5f6101000a81548173ffffffffffffffffffffffffffffffffffffffff021916908373ffffffffffffffffffffffffffffffffffffffff1602179055505f6007819055505f6009819055505f60088190555062000450565b5f81519050919050565b7f4e487b71000000000000000000000000000000000000000000000000000000005f52604160045260245ffd5b7f4e487b71000000000000000000000000000000000000000000000000000000005f52602260045260245ffd5b5f60028204905060018216806200018457607f821691505b6020821081036200019a57620001996200013f565b5b50919050565b5f819050815f5260205f209050919050565b5f6020601f8301049050919050565b5f82821b905092915050565b5f60088302620001fe7fffffffffffffffffffffffffffffffffffffffffffffffffffffffffffffffff82620001c1565b6200020a8683620001c1565b95508019841693508086168417925050509392505050565b5f819050919050565b5f819050919050565b5f620002546200024e620002488462000222565b6200022b565b62000222565b9050919050565b5f819050919050565b6200026f8362000234565b620002876200027e826200025b565b848454620001cd565b825550505050565b5f90565b6200029d6200028f565b620002aa81848462000264565b505050565b5b81811015620002d157620002c55f8262000293565b600181019050620002b0565b5050565b601f8211156200032057620002ea81620001a0565b620002f584620001b2565b8101602085101562000305578190505b6200031d6200031485620001b2565b830182620002af565b50505b505050565b5f82821c905092915050565b5f620003425f198460080262000325565b1980831691505092915050565b5f6200035c838362000331565b9150826002028217905092915050565b620003778262000108565b67ffffffffffffffff81111562000393576200039262000112565b5b6200039f82546200016c565b620003ac828285620002d5565b5f60209050601f831160018114620003e2575f8415620003cd578287015190505b620003d985826200034f565b86555062000448565b601f198416620003f286620001a0565b5f5b828110156200041b57848901518255600182019150602085019450602081019050620003f4565b868310156200043b578489015162000437601f89168262000331565b8355505b6001600288020188555050505b505050505050565b615980806200045e5f395ff3fe6080604052600436106101c1575f3560e01c80636352211e116100f6578063a22cb46511610094578063c87b56dd11610063578063c87b56dd146105c1578063cf266ed0146105fd578063d12812c614610619578063e985e9c514610655576101c1565b8063a22cb46514610539578063ae677aa314610561578063b88d4fde1461057d578063be9af536146105a5576101c1565b806391e078bb116100d057806391e078bb146104bb57806395d89b41146104d757806396b5a755146105015780639979ef451461051d576101c1565b80636352211e146104195780636612374b1461045557806370a082311461047f576101c1565b8063202e374011610163578063361c19951161013d578063361c19951461037b57806342842e0e1461039757806345576f94146103bf57806345f8fa80146103ef576101c1565b8063202e37401461030d57806323b872dd146103375780632f33df601461035f576101c1565b8063095ea7b31161019f578063095ea7b3146102675780630f08efe01461028f57806312e85585146102b9578063146df2bc146102e3576101c1565b806301ffc9a7146101c557806306fdde0314610201578063081812fc1461022b575b5f80fd5b3480156101d0575f80fd5b506101eb60048036038101906101e69190614711565b610691565b6040516101f89190614756565b60405180910390f35b34801561020c575f80fd5b506102156106f1565b60405161022291906147f9565b60405180910390f35b348015610236575f80fd5b50610251600480360381019061024c919061484c565b610780565b60405161025e91906148b6565b60405180910390f35b348015610272575f80fd5b5061028d600480360381019061028891906148f9565b61079b565b005b34801561029a575f80fd5b506102a36107b1565b6040516102b09190614afd565b60405180910390f35b3480156102c4575f80fd5b506102cd610b04565b6040516102da9190614b2c565b60405180910390f35b3480156102ee575f80fd5b506102f7610b0d565b6040516103049190614afd565b60405180910390f35b348015610318575f80fd5b50610321610f6b565b60405161032e9190614afd565b60405180910390f35b348015610342575f80fd5b5061035d60048036038101906103589190614b45565b6112da565b005b6103796004803603810190610374919061484c565b6113d9565b005b61039560048036038101906103909190614b95565b611543565b005b3480156103a2575f80fd5b506103bd60048036038101906103b89190614b45565b611858565b005b6103d960048036038101906103d49190614cff565b611877565b6040516103e69190614b2c565b60405180910390f35b3480156103fa575f80fd5b50610403611abf565b6040516104109190614afd565b60405180910390f35b348015610424575f80fd5b5061043f600480360381019061043a919061484c565b611eaa565b60405161044c91906148b6565b60405180910390f35b348015610460575f80fd5b50610469611ebb565b6040516104769190614afd565b60405180910390f35b34801561048a575f80fd5b506104a560048036038101906104a09190614d46565b61220d565b6040516104b29190614b2c565b60405180910390f35b6104d560048036038101906104d09190614d71565b6122c3565b005b3480156104e2575f80fd5b506104eb6125a1565b6040516104f891906147f9565b60405180910390f35b61051b6004803603810190610516919061484c565b612631565b005b6105376004803603810190610532919061484c565b612885565b005b348015610544575f80fd5b5061055f600480360381019061055a9190614deb565b612d08565b005b61057b6004803603810190610576919061484c565b612d1e565b005b348015610588575f80fd5b506105a3600480360381019061059e9190614ec7565b612db7565b005b6105bf60048036038101906105ba919061484c565b612ddc565b005b3480156105cc575f80fd5b506105e760048036038101906105e2919061484c565b61300a565b6040516105f491906147f9565b60405180910390f35b6106176004803603810190610612919061484c565b613086565b005b348015610624575f80fd5b5061063f600480360381019061063a919061484c565b61344a565b60405161064c9190614b2c565b60405180910390f35b348015610660575f80fd5b5061067b60048036038101906106769190614f47565b61346c565b6040516106889190614756565b60405180910390f35b5f634906490660e01b7bffffffffffffffffffffffffffffffffffffffffffffffffffffffff1916827bffffffffffffffffffffffffffffffffffffffffffffffffffffffff191614806106ea57506106e9826134fa565b5b9050919050565b60605f80546106ff90614fb2565b80601f016020809104026020016040519081016040528092919081815260200182805461072b90614fb2565b80156107765780601f1061074d57610100808354040283529160200191610776565b820191905f5260205f20905b81548152906001019060200180831161075957829003601f168201915b5050505050905090565b5f61078a826135db565b5061079482613661565b9050919050565b6107ad82826107a861369a565b6136a1565b5050565b60605f60075490505f60085490505f808267ffffffffffffffff8111156107db576107da614bdb565b5b60405190808252806020026020018201604052801561081457816020015b610801614614565b8152602001906001900390816107f95790505b5090505f5b84811015610af9573073ffffffffffffffffffffffffffffffffffffffff16600c5f600184610848919061500f565b81526020019081526020015f206002015f9054906101000a900473ffffffffffffffffffffffffffffffffffffffff1673ffffffffffffffffffffffffffffffffffffffff161480156108cc575060011515600c5f6001846108aa919061500f565b81526020019081526020015f2060040160019054906101000a900460ff161515145b801561090757505f1515600c5f6001846108e6919061500f565b81526020019081526020015f206004015f9054906101000a900460ff161515145b15610aec575f60018261091a919061500f565b90505f600c5f8381526020019081526020015f20905080604051806101600160405290815f8201548152602001600182015f9054906101000a900473ffffffffffffffffffffffffffffffffffffffff1673ffffffffffffffffffffffffffffffffffffffff1673ffffffffffffffffffffffffffffffffffffffff168152602001600282015f9054906101000a900473ffffffffffffffffffffffffffffffffffffffff1673ffffffffffffffffffffffffffffffffffffffff1673ffffffffffffffffffffffffffffffffffffffff16815260200160038201548152602001600482015f9054906101000a900460ff161515151581526020016004820160019054906101000a900460ff161515151581526020016005820154815260200160068201548152602001600782015f9054906101000a900473ffffffffffffffffffffffffffffffffffffffff1673ffffffffffffffffffffffffffffffffffffffff1673ffffffffffffffffffffffffffffffffffffffff16815260200160088201548152602001600982015f9054906101000a900460ff161515151581525050848681518110610acf57610ace615042565b5b6020026020010181905250600185610ae7919061500f565b945050505b8080600101915050610819565b508094505050505090565b5f600a54905090565b60605f60075490505f805f5b83811015610c27573373ffffffffffffffffffffffffffffffffffffffff16600c5f600184610b48919061500f565b81526020019081526020015f206001015f9054906101000a900473ffffffffffffffffffffffffffffffffffffffff1673ffffffffffffffffffffffffffffffffffffffff16148015610bcb57505f1515600c5f600184610ba9919061500f565b81526020019081526020015f2060040160019054906101000a900460ff161515145b8015610c0657505f1515600c5f600184610be5919061500f565b81526020019081526020015f206004015f9054906101000a900460ff161515145b15610c1a578280610c169061506f565b9350505b8080600101915050610b19565b505f8267ffffffffffffffff811115610c4357610c42614bdb565b5b604051908082528060200260200182016040528015610c7c57816020015b610c69614614565b815260200190600190039081610c615790505b5090505f5b84811015610f60573373ffffffffffffffffffffffffffffffffffffffff16600c5f600184610cb0919061500f565b81526020019081526020015f206001015f9054906101000a900473ffffffffffffffffffffffffffffffffffffffff1673ffffffffffffffffffffffffffffffffffffffff16148015610d3357505f1515600c5f600184610d11919061500f565b81526020019081526020015f2060040160019054906101000a900460ff161515145b8015610d6e57505f1515600c5f600184610d4d919061500f565b81526020019081526020015f206004015f9054906101000a900460ff161515145b15610f53575f600182610d81919061500f565b90505f600c5f8381526020019081526020015f20905080604051806101600160405290815f8201548152602001600182015f9054906101000a900473ffffffffffffffffffffffffffffffffffffffff1673ffffffffffffffffffffffffffffffffffffffff1673ffffffffffffffffffffffffffffffffffffffff168152602001600282015f9054906101000a900473ffffffffffffffffffffffffffffffffffffffff1673ffffffffffffffffffffffffffffffffffffffff1673ffffffffffffffffffffffffffffffffffffffff16815260200160038201548152602001600482015f9054906101000a900460ff161515151581526020016004820160019054906101000a900460ff161515151581526020016005820154815260200160068201548152602001600782015f9054906101000a900473ffffffffffffffffffffffffffffffffffffffff1673ffffffffffffffffffffffffffffffffffffffff1673ffffffffffffffffffffffffffffffffffffffff16815260200160088201548152602001600982015f9054906101000a900460ff161515151581525050848681518110610f3657610f35615042565b5b6020026020010181905250600185610f4e919061500f565b945050505b8080600101915050610c81565b508094505050505090565b60605f60075490505f805f5b8381101561100e573373ffffffffffffffffffffffffffffffffffffffff16600c5f600184610fa6919061500f565b81526020019081526020015f206002015f9054906101000a900473ffffffffffffffffffffffffffffffffffffffff1673ffffffffffffffffffffffffffffffffffffffff160361100157600183610ffe919061500f565b92505b8080600101915050610f77565b505f8267ffffffffffffffff81111561102a57611029614bdb565b5b60405190808252806020026020018201604052801561106357816020015b611050614614565b8152602001906001900390816110485790505b5090505f5b848110156112cf573373ffffffffffffffffffffffffffffffffffffffff16600c5f600184611097919061500f565b81526020019081526020015f206002015f9054906101000a900473ffffffffffffffffffffffffffffffffffffffff1673ffffffffffffffffffffffffffffffffffffffff16036112c2575f6001826110f0919061500f565b90505f600c5f8381526020019081526020015f20905080604051806101600160405290815f8201548152602001600182015f9054906101000a900473ffffffffffffffffffffffffffffffffffffffff1673ffffffffffffffffffffffffffffffffffffffff1673ffffffffffffffffffffffffffffffffffffffff168152602001600282015f9054906101000a900473ffffffffffffffffffffffffffffffffffffffff1673ffffffffffffffffffffffffffffffffffffffff1673ffffffffffffffffffffffffffffffffffffffff16815260200160038201548152602001600482015f9054906101000a900460ff161515151581526020016004820160019054906101000a900460ff161515151581526020016005820154815260200160068201548152602001600782015f9054906101000a900473ffffffffffffffffffffffffffffffffffffffff1673ffffffffffffffffffffffffffffffffffffffff1673ffffffffffffffffffffffffffffffffffffffff16815260200160088201548152602001600982015f9054906101000a900460ff1615151515815250508486815181106112a5576112a4615042565b5b60200260200101819052506001856112bd919061500f565b945050505b8080600101915050611068565b508094505050505090565b5f73ffffffffffffffffffffffffffffffffffffffff168273ffffffffffffffffffffffffffffffffffffffff160361134a575f6040517f64a0ae9200000000000000000000000000000000000000000000000000000000815260040161134191906148b6565b60405180910390fd5b5f61135d838361135861369a565b6136b3565b90508373ffffffffffffffffffffffffffffffffffffffff168173ffffffffffffffffffffffffffffffffffffffff16146113d3578382826040517f64283d7b0000000000000000000000000000000000000000000000000000000081526004016113ca939291906150b6565b60405180910390fd5b50505050565b600c5f8281526020019081526020015f206001015f9054906101000a900473ffffffffffffffffffffffffffffffffffffffff1673ffffffffffffffffffffffffffffffffffffffff163373ffffffffffffffffffffffffffffffffffffffff161461147a576040517f08c379a000000000000000000000000000000000000000000000000000000000815260040161147190615135565b60405180910390fd5b60085f81548092919061148c90615153565b919050555061149c3033836138be565b33600c5f8381526020019081526020015f206002015f6101000a81548173ffffffffffffffffffffffffffffffffffffffff021916908373ffffffffffffffffffffffffffffffffffffffff1602179055505f600c5f8381526020019081526020015f206001015f6101000a81548173ffffffffffffffffffffffffffffffffffffffff021916908373ffffffffffffffffffffffffffffffffffffffff16021790555050565b5f8111611585576040517f08c379a000000000000000000000000000000000000000000000000000000000815260040161157c906151c4565b60405180910390fd5b3373ffffffffffffffffffffffffffffffffffffffff16600c5f8481526020019081526020015f206002015f9054906101000a900473ffffffffffffffffffffffffffffffffffffffff1673ffffffffffffffffffffffffffffffffffffffff1614611626576040517f08c379a000000000000000000000000000000000000000000000000000000000815260040161161d90615252565b60405180910390fd5b6040518061016001604052808381526020013373ffffffffffffffffffffffffffffffffffffffff1681526020013073ffffffffffffffffffffffffffffffffffffffff1681526020018281526020015f151581526020016001151581526020015f81526020015f81526020015f73ffffffffffffffffffffffffffffffffffffffff1681526020018281526020015f1515815250600c5f8481526020019081526020015f205f820151815f01556020820151816001015f6101000a81548173ffffffffffffffffffffffffffffffffffffffff021916908373ffffffffffffffffffffffffffffffffffffffff1602179055506040820151816002015f6101000a81548173ffffffffffffffffffffffffffffffffffffffff021916908373ffffffffffffffffffffffffffffffffffffffff160217905550606082015181600301556080820151816004015f6101000a81548160ff02191690831515021790555060a08201518160040160016101000a81548160ff02191690831515021790555060c0820151816005015560e08201518160060155610100820151816007015f6101000a81548173ffffffffffffffffffffffffffffffffffffffff021916908373ffffffffffffffffffffffffffffffffffffffff1602179055506101208201518160080155610140820151816009015f6101000a81548160ff02191690831515021790555090505060085f8154809291906118449061506f565b91905055506118543330846138be565b5050565b61187283838360405180602001604052805f815250612db7565b505050565b5f60075f81548092919061188a9061506f565b91905055505f600754905061189f3382613a26565b6118a98184613b19565b6040518061016001604052808281526020015f73ffffffffffffffffffffffffffffffffffffffff1681526020013373ffffffffffffffffffffffffffffffffffffffff1681526020015f81526020016001151581526020016001151581526020015f81526020015f81526020015f73ffffffffffffffffffffffffffffffffffffffff1681526020015f81526020015f1515815250600c5f8381526020019081526020015f205f820151815f01556020820151816001015f6101000a81548173ffffffffffffffffffffffffffffffffffffffff021916908373ffffffffffffffffffffffffffffffffffffffff1602179055506040820151816002015f6101000a81548173ffffffffffffffffffffffffffffffffffffffff021916908373ffffffffffffffffffffffffffffffffffffffff160217905550606082015181600301556080820151816004015f6101000a81548160ff02191690831515021790555060a08201518160040160016101000a81548160ff02191690831515021790555060c0820151816005015560e08201518160060155610100820151816007015f6101000a81548173ffffffffffffffffffffffffffffffffffffffff021916908373ffffffffffffffffffffffffffffffffffffffff1602179055506101208201518160080155610140820151816009015f6101000a81548160ff02191690831515021790555090505080915050919050565b60605f60075490505f805f5b83811015611ba0573373ffffffffffffffffffffffffffffffffffffffff16600c5f600184611afa919061500f565b81526020019081526020015f206001015f9054906101000a900473ffffffffffffffffffffffffffffffffffffffff1673ffffffffffffffffffffffffffffffffffffffff16148015611b7e575060011515600c5f600184611b5c919061500f565b81526020019081526020015f2060040160019054906101000a900460ff161515145b15611b9357600183611b90919061500f565b92505b8080600101915050611acb565b505f8267ffffffffffffffff811115611bbc57611bbb614bdb565b5b604051908082528060200260200182016040528015611bf557816020015b611be2614614565b815260200190600190039081611bda5790505b5090505f5b84811015611e9f573373ffffffffffffffffffffffffffffffffffffffff16600c5f600184611c29919061500f565b81526020019081526020015f206001015f9054906101000a900473ffffffffffffffffffffffffffffffffffffffff1673ffffffffffffffffffffffffffffffffffffffff16148015611cad575060011515600c5f600184611c8b919061500f565b81526020019081526020015f2060040160019054906101000a900460ff161515145b15611e92575f600182611cc0919061500f565b90505f600c5f8381526020019081526020015f20905080604051806101600160405290815f8201548152602001600182015f9054906101000a900473ffffffffffffffffffffffffffffffffffffffff1673ffffffffffffffffffffffffffffffffffffffff1673ffffffffffffffffffffffffffffffffffffffff168152602001600282015f9054906101000a900473ffffffffffffffffffffffffffffffffffffffff1673ffffffffffffffffffffffffffffffffffffffff1673ffffffffffffffffffffffffffffffffffffffff16815260200160038201548152602001600482015f9054906101000a900460ff161515151581526020016004820160019054906101000a900460ff161515151581526020016005820154815260200160068201548152602001600782015f9054906101000a900473ffffffffffffffffffffffffffffffffffffffff1673ffffffffffffffffffffffffffffffffffffffff1673ffffffffffffffffffffffffffffffffffffffff16815260200160088201548152602001600982015f9054906101000a900460ff161515151581525050848681518110611e7557611e74615042565b5b6020026020010181905250600185611e8d919061500f565b945050505b8080600101915050611bfa565b508094505050505090565b5f611eb4826135db565b9050919050565b60605f60075490505f60095490505f808267ffffffffffffffff811115611ee557611ee4614bdb565b5b604051908082528060200260200182016040528015611f1e57816020015b611f0b614614565b815260200190600190039081611f035790505b5090505f5b84811015612202573073ffffffffffffffffffffffffffffffffffffffff16600c5f600184611f52919061500f565b81526020019081526020015f206002015f9054906101000a900473ffffffffffffffffffffffffffffffffffffffff1673ffffffffffffffffffffffffffffffffffffffff16148015611fd557505f1515600c5f600184611fb3919061500f565b81526020019081526020015f2060040160019054906101000a900460ff161515145b801561201057505f1515600c5f600184611fef919061500f565b81526020019081526020015f206004015f9054906101000a900460ff161515145b156121f5575f600182612023919061500f565b90505f600c5f8381526020019081526020015f20905080604051806101600160405290815f8201548152602001600182015f9054906101000a900473ffffffffffffffffffffffffffffffffffffffff1673ffffffffffffffffffffffffffffffffffffffff1673ffffffffffffffffffffffffffffffffffffffff168152602001600282015f9054906101000a900473ffffffffffffffffffffffffffffffffffffffff1673ffffffffffffffffffffffffffffffffffffffff1673ffffffffffffffffffffffffffffffffffffffff16815260200160038201548152602001600482015f9054906101000a900460ff161515151581526020016004820160019054906101000a900460ff161515151581526020016005820154815260200160068201548152602001600782015f9054906101000a900473ffffffffffffffffffffffffffffffffffffffff1673ffffffffffffffffffffffffffffffffffffffff1673ffffffffffffffffffffffffffffffffffffffff16815260200160088201548152602001600982015f9054906101000a900460ff1615151515815250508486815181106121d8576121d7615042565b5b60200260200101819052506001856121f0919061500f565b945050505b8080600101915050611f23565b508094505050505090565b5f8073ffffffffffffffffffffffffffffffffffffffff168273ffffffffffffffffffffffffffffffffffffffff160361227e575f6040517f89c62b6400000000000000000000000000000000000000000000000000000000815260040161227591906148b6565b60405180910390fd5b60035f8373ffffffffffffffffffffffffffffffffffffffff1673ffffffffffffffffffffffffffffffffffffffff1681526020019081526020015f20549050919050565b3373ffffffffffffffffffffffffffffffffffffffff16600c5f8581526020019081526020015f206002015f9054906101000a900473ffffffffffffffffffffffffffffffffffffffff1673ffffffffffffffffffffffffffffffffffffffff1614612364576040517f08c379a000000000000000000000000000000000000000000000000000000000815260040161235b90615252565b60405180910390fd5b6040518061016001604052808481526020013373ffffffffffffffffffffffffffffffffffffffff1681526020013073ffffffffffffffffffffffffffffffffffffffff1681526020018381526020015f151581526020015f1515815260200142815260200182426123d6919061500f565b81526020013373ffffffffffffffffffffffffffffffffffffffff1681526020018381526020015f1515815250600c5f8581526020019081526020015f205f820151815f01556020820151816001015f6101000a81548173ffffffffffffffffffffffffffffffffffffffff021916908373ffffffffffffffffffffffffffffffffffffffff1602179055506040820151816002015f6101000a81548173ffffffffffffffffffffffffffffffffffffffff021916908373ffffffffffffffffffffffffffffffffffffffff160217905550606082015181600301556080820151816004015f6101000a81548160ff02191690831515021790555060a08201518160040160016101000a81548160ff02191690831515021790555060c0820151816005015560e08201518160060155610100820151816007015f6101000a81548173ffffffffffffffffffffffffffffffffffffffff021916908373ffffffffffffffffffffffffffffffffffffffff1602179055506101208201518160080155610140820151816009015f6101000a81548160ff02191690831515021790555090505060095f81548092919061258c9061506f565b919050555061259c3330856138be565b505050565b6060600180546125b090614fb2565b80601f01602080910402602001604051908101604052809291908181526020018280546125dc90614fb2565b80156126275780601f106125fe57610100808354040283529160200191612627565b820191905f5260205f20905b81548152906001019060200180831161260a57829003601f168201915b5050505050905090565b5f600c5f8381526020019081526020015f209050806001015f9054906101000a900473ffffffffffffffffffffffffffffffffffffffff1673ffffffffffffffffffffffffffffffffffffffff163373ffffffffffffffffffffffffffffffffffffffff16146126d6576040517f08c379a00000000000000000000000000000000000000000000000000000000081526004016126cd906152ba565b60405180910390fd5b60095f8154809291906126e890615153565b9190505550806001015f9054906101000a900473ffffffffffffffffffffffffffffffffffffffff1673ffffffffffffffffffffffffffffffffffffffff16816007015f9054906101000a900473ffffffffffffffffffffffffffffffffffffffff1673ffffffffffffffffffffffffffffffffffffffff16146127d257806007015f9054906101000a900473ffffffffffffffffffffffffffffffffffffffff1673ffffffffffffffffffffffffffffffffffffffff166108fc826008015490811502906040515f60405180830381858888f193505050501580156127d0573d5f803e3d5ffd5b505b33600c5f8481526020019081526020015f206002015f6101000a81548173ffffffffffffffffffffffffffffffffffffffff021916908373ffffffffffffffffffffffffffffffffffffffff1602179055505f600c5f8481526020019081526020015f206001015f6101000a81548173ffffffffffffffffffffffffffffffffffffffff021916908373ffffffffffffffffffffffffffffffffffffffff1602179055506128813033846138be565b5050565b5f600c5f8381526020019081526020015f20905080600501544210156128e0576040517f08c379a00000000000000000000000000000000000000000000000000000000081526004016128d790615322565b60405180910390fd5b3373ffffffffffffffffffffffffffffffffffffffff16816007015f9054906101000a900473ffffffffffffffffffffffffffffffffffffffff1673ffffffffffffffffffffffffffffffffffffffff1603612971576040517f08c379a00000000000000000000000000000000000000000000000000000000081526004016129689061538a565b60405180910390fd5b806001015f9054906101000a900473ffffffffffffffffffffffffffffffffffffffff1673ffffffffffffffffffffffffffffffffffffffff16816007015f9054906101000a900473ffffffffffffffffffffffffffffffffffffffff1673ffffffffffffffffffffffffffffffffffffffff1614612a5b575f816007015f9054906101000a900473ffffffffffffffffffffffffffffffffffffffff1690508073ffffffffffffffffffffffffffffffffffffffff166108fc836008015490811502906040515f60405180830381858888f19350505050158015612a58573d5f803e3d5ffd5b50505b34816008018190555033816007015f6101000a81548173ffffffffffffffffffffffffffffffffffffffff021916908373ffffffffffffffffffffffffffffffffffffffff160217905550806001015f9054906101000a900473ffffffffffffffffffffffffffffffffffffffff1673ffffffffffffffffffffffffffffffffffffffff166108fc3490811502906040515f60405180830381858888f19350505050158015612b0c573d5f803e3d5ffd5b5080600c5f8481526020019081526020015f205f820154815f0155600182015f9054906101000a900473ffffffffffffffffffffffffffffffffffffffff16816001015f6101000a81548173ffffffffffffffffffffffffffffffffffffffff021916908373ffffffffffffffffffffffffffffffffffffffff160217905550600282015f9054906101000a900473ffffffffffffffffffffffffffffffffffffffff16816002015f6101000a81548173ffffffffffffffffffffffffffffffffffffffff021916908373ffffffffffffffffffffffffffffffffffffffff16021790555060038201548160030155600482015f9054906101000a900460ff16816004015f6101000a81548160ff0219169083151502179055506004820160019054906101000a900460ff168160040160016101000a81548160ff0219169083151502179055506005820154816005015560068201548160060155600782015f9054906101000a900473ffffffffffffffffffffffffffffffffffffffff16816007015f6101000a81548173ffffffffffffffffffffffffffffffffffffffff021916908373ffffffffffffffffffffffffffffffffffffffff16021790555060088201548160080155600982015f9054906101000a900460ff16816009015f6101000a81548160ff0219169083151502179055509050505050565b612d1a612d1361369a565b8383613b73565b5050565b3373ffffffffffffffffffffffffffffffffffffffff16600b5f9054906101000a900473ffffffffffffffffffffffffffffffffffffffff1673ffffffffffffffffffffffffffffffffffffffff1614612dad576040517f08c379a0000000000000000000000000000000000000000000000000000000008152600401612da490615418565b60405180910390fd5b80600a8190555050565b612dc28484846112da565b612dd6612dcd61369a565b85858585613d4c565b50505050565b5f600c5f8381526020019081526020015f20600301549050803414612e36576040517f08c379a0000000000000000000000000000000000000000000000000000000008152600401612e2d906154a6565b60405180910390fd5b33600c5f8481526020019081526020015f206002015f6101000a81548173ffffffffffffffffffffffffffffffffffffffff021916908373ffffffffffffffffffffffffffffffffffffffff1602179055506001600c5f8481526020019081526020015f206004015f6101000a81548160ff02191690831515021790555060085f815480929190612ec690615153565b9190505550612ed63033846138be565b600b5f9054906101000a900473ffffffffffffffffffffffffffffffffffffffff1673ffffffffffffffffffffffffffffffffffffffff166108fc600a5490811502906040515f60405180830381858888f19350505050158015612f3c573d5f803e3d5ffd5b50600c5f8381526020019081526020015f206001015f9054906101000a900473ffffffffffffffffffffffffffffffffffffffff1673ffffffffffffffffffffffffffffffffffffffff166108fc3490811502906040515f60405180830381858888f19350505050158015612fb3573d5f803e3d5ffd5b505f600c5f8481526020019081526020015f206001015f6101000a81548173ffffffffffffffffffffffffffffffffffffffff021916908373ffffffffffffffffffffffffffffffffffffffff1602179055505050565b6060613015826135db565b505f61301f613ef8565b90505f61302b84613f0e565b90505f82510361303f578092505050613081565b5f8151111561307357818160405160200161305b9291906154fe565b60405160208183030381529060405292505050613081565b61307c84613faf565b925050505b919050565b5f600c5f8381526020019081526020015f209050806001015f9054906101000a900473ffffffffffffffffffffffffffffffffffffffff1673ffffffffffffffffffffffffffffffffffffffff163373ffffffffffffffffffffffffffffffffffffffff161461312b576040517f08c379a000000000000000000000000000000000000000000000000000000000815260040161312290615591565b60405180910390fd5b60095f81548092919061313d90615153565b919050555061317030826007015f9054906101000a900473ffffffffffffffffffffffffffffffffffffffff16846138be565b6001816009015f6101000a81548160ff0219169083151502179055506001816004015f6101000a81548160ff021916908315150217905550806007015f9054906101000a900473ffffffffffffffffffffffffffffffffffffffff16816002015f6101000a81548173ffffffffffffffffffffffffffffffffffffffff021916908373ffffffffffffffffffffffffffffffffffffffff1602179055505f816001015f6101000a81548173ffffffffffffffffffffffffffffffffffffffff021916908373ffffffffffffffffffffffffffffffffffffffff16021790555080600c5f8481526020019081526020015f205f820154815f0155600182015f9054906101000a900473ffffffffffffffffffffffffffffffffffffffff16816001015f6101000a81548173ffffffffffffffffffffffffffffffffffffffff021916908373ffffffffffffffffffffffffffffffffffffffff160217905550600282015f9054906101000a900473ffffffffffffffffffffffffffffffffffffffff16816002015f6101000a81548173ffffffffffffffffffffffffffffffffffffffff021916908373ffffffffffffffffffffffffffffffffffffffff16021790555060038201548160030155600482015f9054906101000a900460ff16816004015f6101000a81548160ff0219169083151502179055506004820160019054906101000a900460ff168160040160016101000a81548160ff0219169083151502179055506005820154816005015560068201548160060155600782015f9054906101000a900473ffffffffffffffffffffffffffffffffffffffff16816007015f6101000a81548173ffffffffffffffffffffffffffffffffffffffff021916908373ffffffffffffffffffffffffffffffffffffffff16021790555060088201548160080155600982015f9054906101000a900460ff16816009015f6101000a81548160ff0219169083151502179055509050505050565b5f80600c5f8481526020019081526020015f2090508060060154915050919050565b5f60055f8473ffffffffffffffffffffffffffffffffffffffff1673ffffffffffffffffffffffffffffffffffffffff1681526020019081526020015f205f8373ffffffffffffffffffffffffffffffffffffffff1673ffffffffffffffffffffffffffffffffffffffff1681526020019081526020015f205f9054906101000a900460ff16905092915050565b5f7f80ac58cd000000000000000000000000000000000000000000000000000000007bffffffffffffffffffffffffffffffffffffffffffffffffffffffff1916827bffffffffffffffffffffffffffffffffffffffffffffffffffffffff191614806135c457507f5b5e139f000000000000000000000000000000000000000000000000000000007bffffffffffffffffffffffffffffffffffffffffffffffffffffffff1916827bffffffffffffffffffffffffffffffffffffffffffffffffffffffff1916145b806135d457506135d382614015565b5b9050919050565b5f806135e68361407e565b90505f73ffffffffffffffffffffffffffffffffffffffff168173ffffffffffffffffffffffffffffffffffffffff160361365857826040517f7e27328900000000000000000000000000000000000000000000000000000000815260040161364f9190614b2c565b60405180910390fd5b80915050919050565b5f60045f8381526020019081526020015f205f9054906101000a900473ffffffffffffffffffffffffffffffffffffffff169050919050565b5f33905090565b6136ae83838360016140b7565b505050565b5f806136be8461407e565b90505f73ffffffffffffffffffffffffffffffffffffffff168373ffffffffffffffffffffffffffffffffffffffff16146136ff576136fe818486614276565b5b5f73ffffffffffffffffffffffffffffffffffffffff168173ffffffffffffffffffffffffffffffffffffffff161461378a5761373e5f855f806140b7565b600160035f8373ffffffffffffffffffffffffffffffffffffffff1673ffffffffffffffffffffffffffffffffffffffff1681526020019081526020015f205f82825403925050819055505b5f73ffffffffffffffffffffffffffffffffffffffff168573ffffffffffffffffffffffffffffffffffffffff161461380957600160035f8773ffffffffffffffffffffffffffffffffffffffff1673ffffffffffffffffffffffffffffffffffffffff1681526020019081526020015f205f82825401925050819055505b8460025f8681526020019081526020015f205f6101000a81548173ffffffffffffffffffffffffffffffffffffffff021916908373ffffffffffffffffffffffffffffffffffffffff160217905550838573ffffffffffffffffffffffffffffffffffffffff168273ffffffffffffffffffffffffffffffffffffffff167fddf252ad1be2c89b69c2b068fc378daa952ba7f163c4a11628f55a4df523b3ef60405160405180910390a4809150509392505050565b5f73ffffffffffffffffffffffffffffffffffffffff168273ffffffffffffffffffffffffffffffffffffffff160361392e575f6040517f64a0ae9200000000000000000000000000000000000000000000000000000000815260040161392591906148b6565b60405180910390fd5b5f61393a83835f6136b3565b90505f73ffffffffffffffffffffffffffffffffffffffff168173ffffffffffffffffffffffffffffffffffffffff16036139ac57816040517f7e2732890000000000000000000000000000000000000000000000000000000081526004016139a39190614b2c565b60405180910390fd5b8373ffffffffffffffffffffffffffffffffffffffff168173ffffffffffffffffffffffffffffffffffffffff1614613a20578382826040517f64283d7b000000000000000000000000000000000000000000000000000000008152600401613a17939291906150b6565b60405180910390fd5b50505050565b5f73ffffffffffffffffffffffffffffffffffffffff168273ffffffffffffffffffffffffffffffffffffffff1603613a96575f6040517f64a0ae92000000000000000000000000000000000000000000000000000000008152600401613a8d91906148b6565b60405180910390fd5b5f613aa283835f6136b3565b90505f73ffffffffffffffffffffffffffffffffffffffff168173ffffffffffffffffffffffffffffffffffffffff1614613b14575f6040517f73c6ac6e000000000000000000000000000000000000000000000000000000008152600401613b0b91906148b6565b60405180910390fd5b505050565b8060065f8481526020019081526020015f209081613b37919061574c565b507ff8e1a15aba9398e019f0b49df1a4fde98ee17ae345cb5f6b5e2c27f5033e8ce782604051613b679190614b2c565b60405180910390a15050565b5f73ffffffffffffffffffffffffffffffffffffffff168373ffffffffffffffffffffffffffffffffffffffff1603613be3575f6040517fa9fbf51f000000000000000000000000000000000000000000000000000000008152600401613bda91906148b6565b60405180910390fd5b5f73ffffffffffffffffffffffffffffffffffffffff168273ffffffffffffffffffffffffffffffffffffffff1603613c5357816040517f5b08ba18000000000000000000000000000000000000000000000000000000008152600401613c4a91906148b6565b60405180910390fd5b8060055f8573ffffffffffffffffffffffffffffffffffffffff1673ffffffffffffffffffffffffffffffffffffffff1681526020019081526020015f205f8473ffffffffffffffffffffffffffffffffffffffff1673ffffffffffffffffffffffffffffffffffffffff1681526020019081526020015f205f6101000a81548160ff0219169083151502179055508173ffffffffffffffffffffffffffffffffffffffff168373ffffffffffffffffffffffffffffffffffffffff167f17307eab39ab6107e8899845ad3d59bd9653f200f220920489ca2b5937696c3183604051613d3f9190614756565b60405180910390a3505050565b5f8373ffffffffffffffffffffffffffffffffffffffff163b1115613ef1578273ffffffffffffffffffffffffffffffffffffffff1663150b7a02868685856040518563ffffffff1660e01b8152600401613daa949392919061586d565b6020604051808303815f875af1925050508015613de557506040513d601f19601f82011682018060405250810190613de291906158cb565b60015b613e66573d805f8114613e13576040519150601f19603f3d011682016040523d82523d5f602084013e613e18565b606091505b505f815103613e5e57836040517f64a0ae92000000000000000000000000000000000000000000000000000000008152600401613e5591906148b6565b60405180910390fd5b805160208201fd5b63150b7a0260e01b7bffffffffffffffffffffffffffffffffffffffffffffffffffffffff1916817bffffffffffffffffffffffffffffffffffffffffffffffffffffffff191614613eef57836040517f64a0ae92000000000000000000000000000000000000000000000000000000008152600401613ee691906148b6565b60405180910390fd5b505b5050505050565b606060405180602001604052805f815250905090565b606060065f8381526020019081526020015f208054613f2c90614fb2565b80601f0160208091040260200160405190810160405280929190818152602001828054613f5890614fb2565b8015613fa35780601f10613f7a57610100808354040283529160200191613fa3565b820191905f5260205f20905b815481529060010190602001808311613f8657829003601f168201915b50505050509050919050565b6060613fba826135db565b505f613fc4613ef8565b90505f815111613fe25760405180602001604052805f81525061400d565b80613fec84614339565b604051602001613ffd9291906154fe565b6040516020818303038152906040525b915050919050565b5f7f01ffc9a7000000000000000000000000000000000000000000000000000000007bffffffffffffffffffffffffffffffffffffffffffffffffffffffff1916827bffffffffffffffffffffffffffffffffffffffffffffffffffffffff1916149050919050565b5f60025f8381526020019081526020015f205f9054906101000a900473ffffffffffffffffffffffffffffffffffffffff169050919050565b80806140ef57505f73ffffffffffffffffffffffffffffffffffffffff168273ffffffffffffffffffffffffffffffffffffffff1614155b15614221575f6140fe846135db565b90505f73ffffffffffffffffffffffffffffffffffffffff168373ffffffffffffffffffffffffffffffffffffffff161415801561416857508273ffffffffffffffffffffffffffffffffffffffff168173ffffffffffffffffffffffffffffffffffffffff1614155b801561417b5750614179818461346c565b155b156141bd57826040517fa9fbf51f0000000000000000000000000000000000000000000000000000000081526004016141b491906148b6565b60405180910390fd5b811561421f57838573ffffffffffffffffffffffffffffffffffffffff168273ffffffffffffffffffffffffffffffffffffffff167f8c5be1e5ebec7d5bd14f71427d1e84f3dd0314c0f7b2291e5b200ac8c7c3b92560405160405180910390a45b505b8360045f8581526020019081526020015f205f6101000a81548173ffffffffffffffffffffffffffffffffffffffff021916908373ffffffffffffffffffffffffffffffffffffffff16021790555050505050565b614281838383614403565b614334575f73ffffffffffffffffffffffffffffffffffffffff168373ffffffffffffffffffffffffffffffffffffffff16036142f557806040517f7e2732890000000000000000000000000000000000000000000000000000000081526004016142ec9190614b2c565b60405180910390fd5b81816040517f177e802f00000000000000000000000000000000000000000000000000000000815260040161432b9291906158f6565b60405180910390fd5b505050565b60605f6001614347846144c3565b0190505f8167ffffffffffffffff81111561436557614364614bdb565b5b6040519080825280601f01601f1916602001820160405280156143975781602001600182028036833780820191505090505b5090505f82602083010190505b6001156143f8578080600190039150507f3031323334353637383961626364656600000000000000000000000000000000600a86061a8153600a85816143ed576143ec61591d565b5b0494505f85036143a4575b819350505050919050565b5f8073ffffffffffffffffffffffffffffffffffffffff168373ffffffffffffffffffffffffffffffffffffffff16141580156144ba57508273ffffffffffffffffffffffffffffffffffffffff168473ffffffffffffffffffffffffffffffffffffffff16148061447b575061447a848461346c565b5b806144b957508273ffffffffffffffffffffffffffffffffffffffff166144a183613661565b73ffffffffffffffffffffffffffffffffffffffff16145b5b90509392505050565b5f805f90507a184f03e93ff9f4daa797ed6e38ed64bf6a1f010000000000000000831061451f577a184f03e93ff9f4daa797ed6e38ed64bf6a1f01000000000000000083816145155761451461591d565b5b0492506040810190505b6d04ee2d6d415b85acef8100000000831061455c576d04ee2d6d415b85acef810000000083816145525761455161591d565b5b0492506020810190505b662386f26fc10000831061458b57662386f26fc1000083816145815761458061591d565b5b0492506010810190505b6305f5e10083106145b4576305f5e10083816145aa576145a961591d565b5b0492506008810190505b61271083106145d95761271083816145cf576145ce61591d565b5b0492506004810190505b606483106145fc57606483816145f2576145f161591d565b5b0492506002810190505b600a831061460b576001810190505b80915050919050565b6040518061016001604052805f81526020015f73ffffffffffffffffffffffffffffffffffffffff1681526020015f73ffffffffffffffffffffffffffffffffffffffff1681526020015f81526020015f151581526020015f151581526020015f81526020015f81526020015f73ffffffffffffffffffffffffffffffffffffffff1681526020015f81526020015f151581525090565b5f604051905090565b5f80fd5b5f80fd5b5f7fffffffff0000000000000000000000000000000000000000000000000000000082169050919050565b6146f0816146bc565b81146146fa575f80fd5b50565b5f8135905061470b816146e7565b92915050565b5f60208284031215614726576147256146b4565b5b5f614733848285016146fd565b91505092915050565b5f8115159050919050565b6147508161473c565b82525050565b5f6020820190506147695f830184614747565b92915050565b5f81519050919050565b5f82825260208201905092915050565b5f5b838110156147a657808201518184015260208101905061478b565b5f8484015250505050565b5f601f19601f8301169050919050565b5f6147cb8261476f565b6147d58185614779565b93506147e5818560208601614789565b6147ee816147b1565b840191505092915050565b5f6020820190508181035f83015261481181846147c1565b905092915050565b5f819050919050565b61482b81614819565b8114614835575f80fd5b50565b5f8135905061484681614822565b92915050565b5f60208284031215614861576148606146b4565b5b5f61486e84828501614838565b91505092915050565b5f73ffffffffffffffffffffffffffffffffffffffff82169050919050565b5f6148a082614877565b9050919050565b6148b081614896565b82525050565b5f6020820190506148c95f8301846148a7565b92915050565b6148d881614896565b81146148e2575f80fd5b50565b5f813590506148f3816148cf565b92915050565b5f806040838503121561490f5761490e6146b4565b5b5f61491c858286016148e5565b925050602061492d85828601614838565b9150509250929050565b5f81519050919050565b5f82825260208201905092915050565b5f819050602082019050919050565b61496981614819565b82525050565b5f61497982614877565b9050919050565b6149898161496f565b82525050565b6149988161473c565b82525050565b61016082015f8201516149b35f850182614960565b5060208201516149c66020850182614980565b5060408201516149d96040850182614980565b5060608201516149ec6060850182614960565b5060808201516149ff608085018261498f565b5060a0820151614a1260a085018261498f565b5060c0820151614a2560c0850182614960565b5060e0820151614a3860e0850182614960565b50610100820151614a4d610100850182614980565b50610120820151614a62610120850182614960565b50610140820151614a7761014085018261498f565b50505050565b5f614a88838361499e565b6101608301905092915050565b5f602082019050919050565b5f614aab82614937565b614ab58185614941565b9350614ac083614951565b805f5b83811015614af0578151614ad78882614a7d565b9750614ae283614a95565b925050600181019050614ac3565b5085935050505092915050565b5f6020820190508181035f830152614b158184614aa1565b905092915050565b614b2681614819565b82525050565b5f602082019050614b3f5f830184614b1d565b92915050565b5f805f60608486031215614b5c57614b5b6146b4565b5b5f614b69868287016148e5565b9350506020614b7a868287016148e5565b9250506040614b8b86828701614838565b9150509250925092565b5f8060408385031215614bab57614baa6146b4565b5b5f614bb885828601614838565b9250506020614bc985828601614838565b9150509250929050565b5f80fd5b5f80fd5b7f4e487b71000000000000000000000000000000000000000000000000000000005f52604160045260245ffd5b614c11826147b1565b810181811067ffffffffffffffff82111715614c3057614c2f614bdb565b5b80604052505050565b5f614c426146ab565b9050614c4e8282614c08565b919050565b5f67ffffffffffffffff821115614c6d57614c6c614bdb565b5b614c76826147b1565b9050602081019050919050565b828183375f83830152505050565b5f614ca3614c9e84614c53565b614c39565b905082815260208101848484011115614cbf57614cbe614bd7565b5b614cca848285614c83565b509392505050565b5f82601f830112614ce657614ce5614bd3565b5b8135614cf6848260208601614c91565b91505092915050565b5f60208284031215614d1457614d136146b4565b5b5f82013567ffffffffffffffff811115614d3157614d306146b8565b5b614d3d84828501614cd2565b91505092915050565b5f60208284031215614d5b57614d5a6146b4565b5b5f614d68848285016148e5565b91505092915050565b5f805f60608486031215614d8857614d876146b4565b5b5f614d9586828701614838565b9350506020614da686828701614838565b9250506040614db786828701614838565b9150509250925092565b614dca8161473c565b8114614dd4575f80fd5b50565b5f81359050614de581614dc1565b92915050565b5f8060408385031215614e0157614e006146b4565b5b5f614e0e858286016148e5565b9250506020614e1f85828601614dd7565b9150509250929050565b5f67ffffffffffffffff821115614e4357614e42614bdb565b5b614e4c826147b1565b9050602081019050919050565b5f614e6b614e6684614e29565b614c39565b905082815260208101848484011115614e8757614e86614bd7565b5b614e92848285614c83565b509392505050565b5f82601f830112614eae57614ead614bd3565b5b8135614ebe848260208601614e59565b91505092915050565b5f805f8060808587031215614edf57614ede6146b4565b5b5f614eec878288016148e5565b9450506020614efd878288016148e5565b9350506040614f0e87828801614838565b925050606085013567ffffffffffffffff811115614f2f57614f2e6146b8565b5b614f3b87828801614e9a565b91505092959194509250565b5f8060408385031215614f5d57614f5c6146b4565b5b5f614f6a858286016148e5565b9250506020614f7b858286016148e5565b9150509250929050565b7f4e487b71000000000000000000000000000000000000000000000000000000005f52602260045260245ffd5b5f6002820490506001821680614fc957607f821691505b602082108103614fdc57614fdb614f85565b5b50919050565b7f4e487b71000000000000000000000000000000000000000000000000000000005f52601160045260245ffd5b5f61501982614819565b915061502483614819565b925082820190508082111561503c5761503b614fe2565b5b92915050565b7f4e487b71000000000000000000000000000000000000000000000000000000005f52603260045260245ffd5b5f61507982614819565b91507fffffffffffffffffffffffffffffffffffffffffffffffffffffffffffffffff82036150ab576150aa614fe2565b5b600182019050919050565b5f6060820190506150c95f8301866148a7565b6150d66020830185614b1d565b6150e360408301846148a7565b949350505050565b7f4f6e6c79206f776e65722063616e2063616e63656c2073656c6c696e670000005f82015250565b5f61511f601d83614779565b915061512a826150eb565b602082019050919050565b5f6020820190508181035f83015261514c81615113565b9050919050565b5f61515d82614819565b91505f820361516f5761516e614fe2565b5b600182039050919050565b7f5072696365206d757374206265206174206c65617374203120776569000000005f82015250565b5f6151ae601c83614779565b91506151b98261517a565b602082019050919050565b5f6020820190508181035f8301526151db816151a2565b9050919050565b7f4f6e6c79206974656d206f776e65722063616e20706572666f726d20746869735f8201527f206f7065726174696f6e00000000000000000000000000000000000000000000602082015250565b5f61523c602a83614779565b9150615247826151e2565b604082019050919050565b5f6020820190508181035f83015261526981615230565b9050919050565b7f4f6e6c79206f776e65722063616e2063616e63656c2061756374696f6e0000005f82015250565b5f6152a4601d83614779565b91506152af82615270565b602082019050919050565b5f6020820190508181035f8301526152d181615298565b9050919050565b7f41756374696f6e206e6f742079657420737461727465640000000000000000005f82015250565b5f61530c601783614779565b9150615317826152d8565b602082019050919050565b5f6020820190508181035f83015261533981615300565b9050919050565b7f43616e6e6f742062696420747769636520696e206120726f77000000000000005f82015250565b5f615374601983614779565b915061537f82615340565b602082019050919050565b5f6020820190508181035f8301526153a181615368565b9050919050565b7f4f6e6c79206d61726b6574706c616365206f776e65722063616e2075706461745f8201527f65206c697374696e672070726963652e00000000000000000000000000000000602082015250565b5f615402603083614779565b915061540d826153a8565b604082019050919050565b5f6020820190508181035f83015261542f816153f6565b9050919050565b7f506c65617365207375626d6974207468652061736b696e6720707269636520695f8201527f6e206f7264657220746f20636f6d706c65746520746865207075726368617365602082015250565b5f615490604083614779565b915061549b82615436565b604082019050919050565b5f6020820190508181035f8301526154bd81615484565b9050919050565b5f81905092915050565b5f6154d88261476f565b6154e281856154c4565b93506154f2818560208601614789565b80840191505092915050565b5f61550982856154ce565b915061551582846154ce565b91508190509392505050565b7f4f6e6c792074686520746f6b656e206f776e65722063616e20656e64207468655f8201527f2061756374696f6e000000000000000000000000000000000000000000000000602082015250565b5f61557b602883614779565b915061558682615521565b604082019050919050565b5f6020820190508181035f8301526155a88161556f565b9050919050565b5f819050815f5260205f209050919050565b5f6020601f8301049050919050565b5f82821b905092915050565b5f6008830261560b7fffffffffffffffffffffffffffffffffffffffffffffffffffffffffffffffff826155d0565b61561586836155d0565b95508019841693508086168417925050509392505050565b5f819050919050565b5f61565061564b61564684614819565b61562d565b614819565b9050919050565b5f819050919050565b61566983615636565b61567d61567582615657565b8484546155dc565b825550505050565b5f90565b615691615685565b61569c818484615660565b505050565b5b818110156156bf576156b45f82615689565b6001810190506156a2565b5050565b601f821115615704576156d5816155af565b6156de846155c1565b810160208510156156ed578190505b6157016156f9856155c1565b8301826156a1565b50505b505050565b5f82821c905092915050565b5f6157245f1984600802615709565b1980831691505092915050565b5f61573c8383615715565b9150826002028217905092915050565b6157558261476f565b67ffffffffffffffff81111561576e5761576d614bdb565b5b6157788254614fb2565b6157838282856156c3565b5f60209050601f8311600181146157b4575f84156157a2578287015190505b6157ac8582615731565b865550615813565b601f1984166157c2866155af565b5f5b828110156157e9578489015182556001820191506020850194506020810190506157c4565b868310156158065784890151615802601f891682615715565b8355505b6001600288020188555050505b505050505050565b5f81519050919050565b5f82825260208201905092915050565b5f61583f8261581b565b6158498185615825565b9350615859818560208601614789565b615862816147b1565b840191505092915050565b5f6080820190506158805f8301876148a7565b61588d60208301866148a7565b61589a6040830185614b1d565b81810360608301526158ac8184615835565b905095945050505050565b5f815190506158c5816146e7565b92915050565b5f602082840312156158e0576158df6146b4565b5b5f6158ed848285016158b7565b91505092915050565b5f6040820190506159095f8301856148a7565b6159166020830184614b1d565b9392505050565b7f4e487b71000000000000000000000000000000000000000000000000000000005f52601260045260245ffdfea2646970667358221220df5b11666b51a3b973d5557e870b29f3d60bd0d6da085addc118670d32e0a00964736f6c63430008180033",
  "linkReferences": {},
  "deployedLinkReferences": {}
}